{
  "contractName": "Vampire",
  "abi": [
    {
      "inputs": [
        {
          "internalType": "address",
          "name": "bloodVial_",
          "type": "address"
        }
      ],
      "stateMutability": "nonpayable",
      "type": "constructor"
    },
    {
      "anonymous": false,
      "inputs": [
        {
          "indexed": true,
          "internalType": "address",
          "name": "owner",
          "type": "address"
        },
        {
          "indexed": true,
          "internalType": "address",
          "name": "spender",
          "type": "address"
        },
        {
          "indexed": false,
          "internalType": "uint256",
          "name": "value",
          "type": "uint256"
        }
      ],
      "name": "Approval",
      "type": "event"
    },
    {
      "anonymous": false,
      "inputs": [
        {
          "indexed": true,
          "internalType": "address",
          "name": "previousOwner",
          "type": "address"
        },
        {
          "indexed": true,
          "internalType": "address",
          "name": "newOwner",
          "type": "address"
        }
      ],
      "name": "OwnershipTransferred",
      "type": "event"
    },
    {
      "anonymous": false,
      "inputs": [
        {
          "indexed": true,
          "internalType": "address",
          "name": "from",
          "type": "address"
        },
        {
          "indexed": true,
          "internalType": "address",
          "name": "to",
          "type": "address"
        },
        {
          "indexed": false,
          "internalType": "uint256",
          "name": "value",
          "type": "uint256"
        }
      ],
      "name": "Transfer",
      "type": "event"
    },
    {
      "inputs": [],
      "name": "EPOCH",
      "outputs": [
        {
          "internalType": "uint256",
          "name": "",
          "type": "uint256"
        }
      ],
      "stateMutability": "view",
      "type": "function",
      "constant": true
    },
    {
      "inputs": [],
      "name": "PERIOD",
      "outputs": [
        {
          "internalType": "uint256",
          "name": "",
          "type": "uint256"
        }
      ],
      "stateMutability": "view",
      "type": "function",
      "constant": true
    },
    {
      "inputs": [
        {
          "internalType": "address",
          "name": "owner",
          "type": "address"
        },
        {
          "internalType": "address",
          "name": "spender",
          "type": "address"
        }
      ],
      "name": "allowance",
      "outputs": [
        {
          "internalType": "uint256",
          "name": "",
          "type": "uint256"
        }
      ],
      "stateMutability": "view",
      "type": "function",
      "constant": true
    },
    {
      "inputs": [
        {
          "internalType": "address",
          "name": "spender",
          "type": "address"
        },
        {
          "internalType": "uint256",
          "name": "amount",
          "type": "uint256"
        }
      ],
      "name": "approve",
      "outputs": [
        {
          "internalType": "bool",
          "name": "",
          "type": "bool"
        }
      ],
      "stateMutability": "nonpayable",
      "type": "function"
    },
    {
      "inputs": [
        {
          "internalType": "address",
          "name": "account",
          "type": "address"
        }
      ],
      "name": "balanceOf",
      "outputs": [
        {
          "internalType": "uint256",
          "name": "",
          "type": "uint256"
        }
      ],
      "stateMutability": "view",
      "type": "function",
      "constant": true
    },
    {
      "inputs": [],
      "name": "blockTimestampLast",
      "outputs": [
        {
          "internalType": "uint32",
          "name": "",
          "type": "uint32"
        }
      ],
      "stateMutability": "view",
      "type": "function",
      "constant": true
    },
    {
      "inputs": [],
      "name": "decimals",
      "outputs": [
        {
          "internalType": "uint8",
          "name": "",
          "type": "uint8"
        }
      ],
      "stateMutability": "view",
      "type": "function",
      "constant": true
    },
    {
      "inputs": [
        {
          "internalType": "address",
          "name": "spender",
          "type": "address"
        },
        {
          "internalType": "uint256",
          "name": "subtractedValue",
          "type": "uint256"
        }
      ],
      "name": "decreaseAllowance",
      "outputs": [
        {
          "internalType": "bool",
          "name": "",
          "type": "bool"
        }
      ],
      "stateMutability": "nonpayable",
      "type": "function"
    },
    {
      "inputs": [
        {
          "internalType": "address",
          "name": "spender",
          "type": "address"
        },
        {
          "internalType": "uint256",
          "name": "addedValue",
          "type": "uint256"
        }
      ],
      "name": "increaseAllowance",
      "outputs": [
        {
          "internalType": "bool",
          "name": "",
          "type": "bool"
        }
      ],
      "stateMutability": "nonpayable",
      "type": "function"
    },
    {
      "inputs": [],
      "name": "name",
      "outputs": [
        {
          "internalType": "string",
          "name": "",
          "type": "string"
        }
      ],
      "stateMutability": "view",
      "type": "function",
      "constant": true
    },
    {
      "inputs": [],
      "name": "owner",
      "outputs": [
        {
          "internalType": "address",
          "name": "",
          "type": "address"
        }
      ],
      "stateMutability": "view",
      "type": "function",
      "constant": true
    },
    {
      "inputs": [],
      "name": "priceBloodAverage",
      "outputs": [
        {
          "internalType": "uint224",
          "name": "_x",
          "type": "uint224"
        }
      ],
      "stateMutability": "view",
      "type": "function",
      "constant": true
    },
    {
      "inputs": [],
      "name": "priceBloodCumulativeLast",
      "outputs": [
        {
          "internalType": "uint256",
          "name": "",
          "type": "uint256"
        }
      ],
      "stateMutability": "view",
      "type": "function",
      "constant": true
    },
    {
      "inputs": [],
      "name": "priceDaiAverage",
      "outputs": [
        {
          "internalType": "uint224",
          "name": "_x",
          "type": "uint224"
        }
      ],
      "stateMutability": "view",
      "type": "function",
      "constant": true
    },
    {
      "inputs": [],
      "name": "priceDaiCumulativeLast",
      "outputs": [
        {
          "internalType": "uint256",
          "name": "",
          "type": "uint256"
        }
      ],
      "stateMutability": "view",
      "type": "function",
      "constant": true
    },
    {
      "inputs": [],
      "name": "priceWethAverage",
      "outputs": [
        {
          "internalType": "uint224",
          "name": "_x",
          "type": "uint224"
        }
      ],
      "stateMutability": "view",
      "type": "function",
      "constant": true
    },
    {
      "inputs": [],
      "name": "priceWethCumulativeLast",
      "outputs": [
        {
          "internalType": "uint256",
          "name": "",
          "type": "uint256"
        }
      ],
      "stateMutability": "view",
      "type": "function",
      "constant": true
    },
    {
      "inputs": [],
      "name": "renounceOwnership",
      "outputs": [],
      "stateMutability": "nonpayable",
      "type": "function"
    },
    {
      "inputs": [],
      "name": "symbol",
      "outputs": [
        {
          "internalType": "string",
          "name": "",
          "type": "string"
        }
      ],
      "stateMutability": "view",
      "type": "function",
      "constant": true
    },
    {
      "inputs": [],
      "name": "totalSupply",
      "outputs": [
        {
          "internalType": "uint256",
          "name": "",
          "type": "uint256"
        }
      ],
      "stateMutability": "view",
      "type": "function",
      "constant": true
    },
    {
      "inputs": [
        {
          "internalType": "address",
          "name": "recipient",
          "type": "address"
        },
        {
          "internalType": "uint256",
          "name": "amount",
          "type": "uint256"
        }
      ],
      "name": "transfer",
      "outputs": [
        {
          "internalType": "bool",
          "name": "",
          "type": "bool"
        }
      ],
      "stateMutability": "nonpayable",
      "type": "function"
    },
    {
      "inputs": [
        {
          "internalType": "address",
          "name": "sender",
          "type": "address"
        },
        {
          "internalType": "address",
          "name": "recipient",
          "type": "address"
        },
        {
          "internalType": "uint256",
          "name": "amount",
          "type": "uint256"
        }
      ],
      "name": "transferFrom",
      "outputs": [
        {
          "internalType": "bool",
          "name": "",
          "type": "bool"
        }
      ],
      "stateMutability": "nonpayable",
      "type": "function"
    },
    {
      "inputs": [
        {
          "internalType": "address",
          "name": "newOwner",
          "type": "address"
        }
      ],
      "name": "transferOwnership",
      "outputs": [],
      "stateMutability": "nonpayable",
      "type": "function"
    },
    {
      "stateMutability": "payable",
      "type": "receive",
      "payable": true
    },
    {
      "inputs": [],
      "name": "activateOracles",
      "outputs": [],
      "stateMutability": "nonpayable",
      "type": "function"
    },
    {
      "inputs": [],
      "name": "getDarkEnergy",
      "outputs": [
        {
          "internalType": "uint256",
          "name": "darkEnergy",
          "type": "uint256"
        }
      ],
      "stateMutability": "view",
      "type": "function",
      "constant": true
    },
    {
      "inputs": [],
      "name": "bloodRitual",
      "outputs": [
        {
          "internalType": "bool",
          "name": "",
          "type": "bool"
        }
      ],
      "stateMutability": "nonpayable",
      "type": "function"
    },
    {
      "inputs": [
        {
          "internalType": "uint256",
          "name": "vampires",
          "type": "uint256"
        }
      ],
      "name": "sliverBullet",
      "outputs": [
        {
          "internalType": "bool",
          "name": "",
          "type": "bool"
        }
      ],
      "stateMutability": "nonpayable",
      "type": "function"
    },
    {
      "inputs": [
        {
          "internalType": "uint256",
          "name": "vampires",
          "type": "uint256"
        }
      ],
      "name": "bloodGarlic",
      "outputs": [
        {
          "internalType": "bool",
          "name": "",
          "type": "bool"
        }
      ],
      "stateMutability": "nonpayable",
      "type": "function"
    },
    {
      "inputs": [],
      "name": "etherRitual",
      "outputs": [
        {
          "internalType": "bool",
          "name": "",
          "type": "bool"
        }
      ],
      "stateMutability": "payable",
      "type": "function",
      "payable": true
    }
  ],
  "bytecode": "0x6101406040523480156200001257600080fd5b5060405162006ab938038062006ab9833981810160405260208110156200003857600080fd5b81019080805190602001909291905050506040518060400160405280600781526020017f56616d70697265000000000000000000000000000000000000000000000000008152506040518060400160405280600881526020017f56616d70697265730000000000000000000000000000000000000000000000008152508160039080519060200190620000cd92919062000cfb565b508060049080519060200190620000e692919062000cfb565b506012600560006101000a81548160ff021916908360ff1602179055505050600062000117620005ad60201b60201c565b905080600560016101000a81548173ffffffffffffffffffffffffffffffffffffffff021916908373ffffffffffffffffffffffffffffffffffffffff1602179055508073ffffffffffffffffffffffffffffffffffffffff16600073ffffffffffffffffffffffffffffffffffffffff167f8be0079c531659141344cd1fd0a4f28419497f9722a3daafe3b4186f6b6457e060405160405180910390a35080600d60006101000a81548173ffffffffffffffffffffffffffffffffffffffff021916908373ffffffffffffffffffffffffffffffffffffffff1602179055508073ffffffffffffffffffffffffffffffffffffffff166101208173ffffffffffffffffffffffffffffffffffffffff1660601b815250503073ffffffffffffffffffffffffffffffffffffffff166101008173ffffffffffffffffffffffffffffffffffffffff1660601b815250506200028233683635c9adc5dea00000620005b560201b60201c565b620002d6735c69bee701ef814a2b6a3edd4b1652cb9cc5aa6f73c02aaa39b223fe8d0a0e5c4f27ead9083c756cc2736b175474e89094c44da98b954eedeac495271d0f6200079360201b620055da1760201c565b73ffffffffffffffffffffffffffffffffffffffff1660808173ffffffffffffffffffffffffffffffffffffffff1660601b815250506200034c735c69bee701ef814a2b6a3edd4b1652cb9cc5aa6f3073c02aaa39b223fe8d0a0e5c4f27ead9083c756cc26200079360201b620055da1760201c565b73ffffffffffffffffffffffffffffffffffffffff1660a08173ffffffffffffffffffffffffffffffffffffffff1660601b81525050620003c2735c69bee701ef814a2b6a3edd4b1652cb9cc5aa6f8273c02aaa39b223fe8d0a0e5c4f27ead9083c756cc26200079360201b620055da1760201c565b73ffffffffffffffffffffffffffffffffffffffff1660c08173ffffffffffffffffffffffffffffffffffffffff1660601b81525050737a250d5630b4cf539739df2c5dacb4c659f2488d73ffffffffffffffffffffffffffffffffffffffff1660e08173ffffffffffffffffffffffffffffffffffffffff1660601b81525050600d60009054906101000a900473ffffffffffffffffffffffffffffffffffffffff1673ffffffffffffffffffffffffffffffffffffffff1663095ea7b3737a250d5630b4cf539739df2c5dacb4c659f2488d7fffffffffffffffffffffffffffffffffffffffffffffffffffffffffffffffff6040518363ffffffff1660e01b8152600401808373ffffffffffffffffffffffffffffffffffffffff1673ffffffffffffffffffffffffffffffffffffffff16815260200182815260200192505050602060405180830381600087803b1580156200052157600080fd5b505af115801562000536573d6000803e3d6000fd5b505050506040513d60208110156200054d57600080fd5b810190808051906020019092919050505050620005a630737a250d5630b4cf539739df2c5dacb4c659f2488d7fffffffffffffffffffffffffffffffffffffffffffffffffffffffffffffffff620008f660201b60201c565b5062000daa565b600033905090565b600073ffffffffffffffffffffffffffffffffffffffff168273ffffffffffffffffffffffffffffffffffffffff16141562000659576040517f08c379a000000000000000000000000000000000000000000000000000000000815260040180806020018281038252601f8152602001807f45524332303a206d696e7420746f20746865207a65726f20616464726573730081525060200191505060405180910390fd5b6200066d6000838362000af160201b60201c565b620006898160025462000af660201b620030181790919060201c565b600281905550620006e7816000808573ffffffffffffffffffffffffffffffffffffffff1673ffffffffffffffffffffffffffffffffffffffff1681526020019081526020016000205462000af660201b620030181790919060201c565b6000808473ffffffffffffffffffffffffffffffffffffffff1673ffffffffffffffffffffffffffffffffffffffff168152602001908152602001600020819055508173ffffffffffffffffffffffffffffffffffffffff16600073ffffffffffffffffffffffffffffffffffffffff167fddf252ad1be2c89b69c2b068fc378daa952ba7f163c4a11628f55a4df523b3ef836040518082815260200191505060405180910390a35050565b6000806000620007aa858562000b7f60201b60201c565b91509150858282604051602001808373ffffffffffffffffffffffffffffffffffffffff1673ffffffffffffffffffffffffffffffffffffffff1660601b81526014018273ffffffffffffffffffffffffffffffffffffffff1673ffffffffffffffffffffffffffffffffffffffff1660601b8152601401925050506040516020818303038152906040528051906020012060405160200180807fff000000000000000000000000000000000000000000000000000000000000008152506001018373ffffffffffffffffffffffffffffffffffffffff1673ffffffffffffffffffffffffffffffffffffffff1660601b8152601401828152602001807f96e8ac4277198ff8b6f785478aa9a39f403cb768dd02cbee326c3e7da348845f815250602001925050506040516020818303038152906040528051906020012060001c925050509392505050565b600073ffffffffffffffffffffffffffffffffffffffff168373ffffffffffffffffffffffffffffffffffffffff1614156200097e576040517f08c379a000000000000000000000000000000000000000000000000000000000815260040180806020018281038252602481526020018062006a956024913960400191505060405180910390fd5b600073ffffffffffffffffffffffffffffffffffffffff168273ffffffffffffffffffffffffffffffffffffffff16141562000a06576040517f08c379a000000000000000000000000000000000000000000000000000000000815260040180806020018281038252602281526020018062006a4e6022913960400191505060405180910390fd5b80600160008573ffffffffffffffffffffffffffffffffffffffff1673ffffffffffffffffffffffffffffffffffffffff16815260200190815260200160002060008473ffffffffffffffffffffffffffffffffffffffff1673ffffffffffffffffffffffffffffffffffffffff168152602001908152602001600020819055508173ffffffffffffffffffffffffffffffffffffffff168373ffffffffffffffffffffffffffffffffffffffff167f8c5be1e5ebec7d5bd14f71427d1e84f3dd0314c0f7b2291e5b200ac8c7c3b925836040518082815260200191505060405180910390a3505050565b505050565b60008082840190508381101562000b75576040517f08c379a000000000000000000000000000000000000000000000000000000000815260040180806020018281038252601b8152602001807f536166654d6174683a206164646974696f6e206f766572666c6f77000000000081525060200191505060405180910390fd5b8091505092915050565b6000808273ffffffffffffffffffffffffffffffffffffffff168473ffffffffffffffffffffffffffffffffffffffff16141562000c09576040517f08c379a000000000000000000000000000000000000000000000000000000000815260040180806020018281038252602581526020018062006a706025913960400191505060405180910390fd5b8273ffffffffffffffffffffffffffffffffffffffff168473ffffffffffffffffffffffffffffffffffffffff161062000c4557828462000c48565b83835b8092508193505050600073ffffffffffffffffffffffffffffffffffffffff168273ffffffffffffffffffffffffffffffffffffffff16141562000cf4576040517f08c379a000000000000000000000000000000000000000000000000000000000815260040180806020018281038252601e8152602001807f556e697377617056324c6962726172793a205a45524f5f41444452455353000081525060200191505060405180910390fd5b9250929050565b828054600181600116156101000203166002900490600052602060002090601f016020900481019282601f1062000d3e57805160ff191683800117855562000d6f565b8280016001018555821562000d6f579182015b8281111562000d6e57825182559160200191906001019062000d51565b5b50905062000d7e919062000d82565b5090565b62000da791905b8082111562000da357600081600090555060010162000d89565b5090565b90565b60805160601c60a05160601c60c05160601c60e05160601c6101005160601c6101205160601c615bf862000e56600039806110d152806134085280613a3c5280613abd5280613f7f5280614704525080614c925280614d7d525080613fe752806140cf528061461c528061476c5280614de55280614ecd525080611054528061254e52806133a9528061395052806152fd525080614ba452508061111e52806134515250615bf86000f3fe6080604052600436106101c55760003560e01c806369a66151116100f7578063a457c2d711610095578063d5cd93e111610064578063d5cd93e1146109a1578063dd62ed3e146109cc578063f2fde38b14610a51578063fa1b226414610aa2576101cc565b8063a457c2d714610859578063a9059cbb146108cc578063b4d1d7951461093f578063c5700a021461096a576101cc565b80638da5cb5b116100d15780638da5cb5b146106e057806395d89b411461073757806396f1885a146107c7578063a0dc27581461082e576101cc565b806369a661511461061157806370a0823114610664578063715018a6146106c9576101cc565b8063313ce5671161016457806346676dfe1161013e57806346676dfe146105325780634d2ee9e01461059957806358f18f4e146105bb5780635c0410ac146105e6576101cc565b8063313ce5671461046357806339509351146104945780633ddeb0ed14610507576101cc565b806318160ddd116101a057806318160ddd146103275780631c8b70131461035257806320b07e9f1461036957806323b872dd146103d0576101cc565b8062c952c9146101d157806306fdde0314610224578063095ea7b3146102b4576101cc565b366101cc57005b600080fd5b3480156101dd57600080fd5b5061020a600480360360208110156101f457600080fd5b8101908080359060200190929190505050610ad1565b604051808215151515815260200191505060405180910390f35b34801561023057600080fd5b50610239610eb8565b6040518080602001828103825283818151815260200191508051906020019080838360005b8381101561027957808201518184015260208101905061025e565b50505050905090810190601f1680156102a65780820380516001836020036101000a031916815260200191505b509250505060405180910390f35b3480156102c057600080fd5b5061030d600480360360408110156102d757600080fd5b81019080803573ffffffffffffffffffffffffffffffffffffffff16906020019092919080359060200190929190505050610f5a565b604051808215151515815260200191505060405180910390f35b34801561033357600080fd5b5061033c610f78565b6040518082815260200191505060405180910390f35b34801561035e57600080fd5b50610367610f82565b005b34801561037557600080fd5b5061037e611244565b60405180827bffffffffffffffffffffffffffffffffffffffffffffffffffffffff167bffffffffffffffffffffffffffffffffffffffffffffffffffffffff16815260200191505060405180910390f35b3480156103dc57600080fd5b50610449600480360360608110156103f357600080fd5b81019080803573ffffffffffffffffffffffffffffffffffffffff169060200190929190803573ffffffffffffffffffffffffffffffffffffffff16906020019092919080359060200190929190505050611278565b604051808215151515815260200191505060405180910390f35b34801561046f57600080fd5b50610478611351565b604051808260ff1660ff16815260200191505060405180910390f35b3480156104a057600080fd5b506104ed600480360360408110156104b757600080fd5b81019080803573ffffffffffffffffffffffffffffffffffffffff16906020019092919080359060200190929190505050611368565b604051808215151515815260200191505060405180910390f35b34801561051357600080fd5b5061051c61141b565b6040518082815260200191505060405180910390f35b34801561053e57600080fd5b50610547611421565b60405180827bffffffffffffffffffffffffffffffffffffffffffffffffffffffff167bffffffffffffffffffffffffffffffffffffffffffffffffffffffff16815260200191505060405180910390f35b6105a1611455565b604051808215151515815260200191505060405180910390f35b3480156105c757600080fd5b506105d06116bc565b6040518082815260200191505060405180910390f35b3480156105f257600080fd5b506105fb6116c2565b6040518082815260200191505060405180910390f35b34801561061d57600080fd5b5061064a6004803603602081101561063457600080fd5b810190808035906020019092919050505061184b565b604051808215151515815260200191505060405180910390f35b34801561067057600080fd5b506106b36004803603602081101561068757600080fd5b81019080803573ffffffffffffffffffffffffffffffffffffffff169060200190929190505050611c7c565b6040518082815260200191505060405180910390f35b3480156106d557600080fd5b506106de611cc4565b005b3480156106ec57600080fd5b506106f5611e4f565b604051808273ffffffffffffffffffffffffffffffffffffffff1673ffffffffffffffffffffffffffffffffffffffff16815260200191505060405180910390f35b34801561074357600080fd5b5061074c611e79565b6040518080602001828103825283818151815260200191508051906020019080838360005b8381101561078c578082015181840152602081019050610771565b50505050905090810190601f1680156107b95780820380516001836020036101000a031916815260200191505b509250505060405180910390f35b3480156107d357600080fd5b506107dc611f1b565b60405180827bffffffffffffffffffffffffffffffffffffffffffffffffffffffff167bffffffffffffffffffffffffffffffffffffffffffffffffffffffff16815260200191505060405180910390f35b34801561083a57600080fd5b50610843611f4f565b6040518082815260200191505060405180910390f35b34801561086557600080fd5b506108b26004803603604081101561087c57600080fd5b81019080803573ffffffffffffffffffffffffffffffffffffffff16906020019092919080359060200190929190505050611f56565b604051808215151515815260200191505060405180910390f35b3480156108d857600080fd5b50610925600480360360408110156108ef57600080fd5b81019080803573ffffffffffffffffffffffffffffffffffffffff16906020019092919080359060200190929190505050612023565b604051808215151515815260200191505060405180910390f35b34801561094b57600080fd5b50610954612041565b6040518082815260200191505060405180910390f35b34801561097657600080fd5b5061097f612047565b604051808263ffffffff1663ffffffff16815260200191505060405180910390f35b3480156109ad57600080fd5b506109b661205d565b6040518082815260200191505060405180910390f35b3480156109d857600080fd5b50610a3b600480360360408110156109ef57600080fd5b81019080803573ffffffffffffffffffffffffffffffffffffffff169060200190929190803573ffffffffffffffffffffffffffffffffffffffff169060200190929190505050612063565b6040518082815260200191505060405180910390f35b348015610a5d57600080fd5b50610aa060048036036020811015610a7457600080fd5b81019080803573ffffffffffffffffffffffffffffffffffffffff1690602001909291905050506120ea565b005b348015610aae57600080fd5b50610ab76122fa565b604051808215151515815260200191505060405180910390f35b600081610add33611c7c565b1015610b34576040517f08c379a000000000000000000000000000000000000000000000000000000000815260040180806020018281038252602f815260200180615a13602f913960400191505060405180910390fd5b610b3c612541565b506000610c0d610b4a610f78565b610bff600d60009054906101000a900473ffffffffffffffffffffffffffffffffffffffff1673ffffffffffffffffffffffffffffffffffffffff166318160ddd6040518163ffffffff1660e01b815260040160206040518083038186803b158015610bb557600080fd5b505afa158015610bc9573d6000803e3d6000fd5b505050506040513d6020811015610bdf57600080fd5b8101908080519060200190929190505050866125b990919063ffffffff16565b61263f90919063ffffffff16565b905080600d60009054906101000a900473ffffffffffffffffffffffffffffffffffffffff1673ffffffffffffffffffffffffffffffffffffffff166370a08231336040518263ffffffff1660e01b8152600401808273ffffffffffffffffffffffffffffffffffffffff1673ffffffffffffffffffffffffffffffffffffffff16815260200191505060206040518083038186803b158015610caf57600080fd5b505afa158015610cc3573d6000803e3d6000fd5b505050506040513d6020811015610cd957600080fd5b81019080805190602001909291905050501015610d41576040517f08c379a000000000000000000000000000000000000000000000000000000000815260040180806020018281038252602d815260200180615a42602d913960400191505060405180910390fd5b60004790506000610d74610d53610f78565b610d6684886125b990919063ffffffff16565b61263f90919063ffffffff16565b9050610d803386612689565b600d60009054906101000a900473ffffffffffffffffffffffffffffffffffffffff1673ffffffffffffffffffffffffffffffffffffffff16639dc29fac33856040518363ffffffff1660e01b8152600401808373ffffffffffffffffffffffffffffffffffffffff1673ffffffffffffffffffffffffffffffffffffffff16815260200182815260200192505050602060405180830381600087803b158015610e2957600080fd5b505af1158015610e3d573d6000803e3d6000fd5b505050506040513d6020811015610e5357600080fd5b8101908080519060200190929190505050503373ffffffffffffffffffffffffffffffffffffffff166108fc829081150290604051600060405180830381858888f19350505050158015610eab573d6000803e3d6000fd5b5060019350505050919050565b606060038054600181600116156101000203166002900480601f016020809104026020016040519081016040528092919081815260200182805460018160011615610100020316600290048015610f505780601f10610f2557610100808354040283529160200191610f50565b820191906000526020600020905b815481529060010190602001808311610f3357829003601f168201915b5050505050905090565b6000610f6e610f6761284d565b8484612855565b6001905092915050565b6000600254905090565b610f8a61284d565b73ffffffffffffffffffffffffffffffffffffffff16600560019054906101000a900473ffffffffffffffffffffffffffffffffffffffff1673ffffffffffffffffffffffffffffffffffffffff161461104c576040517f08c379a00000000000000000000000000000000000000000000000000000000081526004018080602001828103825260208152602001807f4f776e61626c653a2063616c6c6572206973206e6f7420746865206f776e657281525060200191505060405180910390fd5b6000806110787f0000000000000000000000000000000000000000000000000000000000000000612a4c565b600960008291906101000a81548163ffffffff021916908363ffffffff16021790555081935082945050505073c02aaa39b223fe8d0a0e5c4f27ead9083c756cc273ffffffffffffffffffffffffffffffffffffffff167f000000000000000000000000000000000000000000000000000000000000000073ffffffffffffffffffffffffffffffffffffffff16106111115780611113565b815b6008819055506111427f0000000000000000000000000000000000000000000000000000000000000000612a4c565b600960008291906101000a81548163ffffffff021916908363ffffffff160217905550819350829450505050736b175474e89094c44da98b954eedeac495271d0f73ffffffffffffffffffffffffffffffffffffffff1673c02aaa39b223fe8d0a0e5c4f27ead9083c756cc273ffffffffffffffffffffffffffffffffffffffff16106111cf57806111d1565b815b600681905550736b175474e89094c44da98b954eedeac495271d0f73ffffffffffffffffffffffffffffffffffffffff1673c02aaa39b223fe8d0a0e5c4f27ead9083c756cc273ffffffffffffffffffffffffffffffffffffffff1610611238578161123a565b805b6007819055505050565b600a8060000160009054906101000a90047bffffffffffffffffffffffffffffffffffffffffffffffffffffffff16905081565b6000611285848484612c97565b6113468461129161284d565b61134185604051806060016040528060288152602001615a9060289139600160008b73ffffffffffffffffffffffffffffffffffffffff1673ffffffffffffffffffffffffffffffffffffffff16815260200190815260200160002060006112f761284d565b73ffffffffffffffffffffffffffffffffffffffff1673ffffffffffffffffffffffffffffffffffffffff16815260200190815260200160002054612f589092919063ffffffff16565b612855565b600190509392505050565b6000600560009054906101000a900460ff16905090565b600061141161137561284d565b8461140c856001600061138661284d565b73ffffffffffffffffffffffffffffffffffffffff1673ffffffffffffffffffffffffffffffffffffffff16815260200190815260200160002060008973ffffffffffffffffffffffffffffffffffffffff1673ffffffffffffffffffffffffffffffffffffffff1681526020019081526020016000205461301890919063ffffffff16565b612855565b6001905092915050565b60085481565b600c8060000160009054906101000a90047bffffffffffffffffffffffffffffffffffffffffffffffffffffffff16905081565b600061145f612541565b506105dc61146b6116c2565b116114c1576040517f08c379a000000000000000000000000000000000000000000000000000000000815260040180806020018281038252602c81526020018061593a602c913960400191505060405180910390fd5b60003447039050600061159182611583600d60009054906101000a900473ffffffffffffffffffffffffffffffffffffffff1673ffffffffffffffffffffffffffffffffffffffff166318160ddd6040518163ffffffff1660e01b815260040160206040518083038186803b15801561153957600080fd5b505afa15801561154d573d6000803e3d6000fd5b505050506040513d602081101561156357600080fd5b8101908080519060200190929190505050346125b990919063ffffffff16565b61263f90919063ffffffff16565b905060006115c1836115b36115a4610f78565b346125b990919063ffffffff16565b61263f90919063ffffffff16565b90506115cd33826130a0565b600d60009054906101000a900473ffffffffffffffffffffffffffffffffffffffff1673ffffffffffffffffffffffffffffffffffffffff166340c10f1933846040518363ffffffff1660e01b8152600401808373ffffffffffffffffffffffffffffffffffffffff1673ffffffffffffffffffffffffffffffffffffffff16815260200182815260200192505050602060405180830381600087803b15801561167657600080fd5b505af115801561168a573d6000803e3d6000fd5b505050506040513d60208110156116a057600080fd5b8101908080519060200190929190505050506001935050505090565b60075481565b600080479050600061175f61175a83600a6040518060200160405290816000820160009054906101000a90047bffffffffffffffffffffffffffffffffffffffffffffffffffffffff167bffffffffffffffffffffffffffffffffffffffffffffffffffffffff167bffffffffffffffffffffffffffffffffffffffffffffffffffffffff168152505061326790919063ffffffff16565b61333d565b71ffffffffffffffffffffffffffffffffffff1690506000600d60009054906101000a900473ffffffffffffffffffffffffffffffffffffffff1673ffffffffffffffffffffffffffffffffffffffff166318160ddd6040518163ffffffff1660e01b815260040160206040518083038186803b1580156117df57600080fd5b505afa1580156117f3573d6000803e3d6000fd5b505050506040513d602081101561180957600080fd5b81019080805190602001909291905050509050611843816118356103e8856125b990919063ffffffff16565b61263f90919063ffffffff16565b935050505090565b60008161185733611c7c565b10156118ae576040517f08c379a000000000000000000000000000000000000000000000000000000000815260040180806020018281038252602d815260200180615b71602d913960400191505060405180910390fd5b6118b6612541565b506000479050600061195361194e83600a6040518060200160405290816000820160009054906101000a90047bffffffffffffffffffffffffffffffffffffffffffffffffffffffff167bffffffffffffffffffffffffffffffffffffffffffffffffffffffff167bffffffffffffffffffffffffffffffffffffffffffffffffffffffff168152505061326790919063ffffffff16565b61333d565b71ffffffffffffffffffffffffffffffffffff1690506000600d60009054906101000a900473ffffffffffffffffffffffffffffffffffffffff1673ffffffffffffffffffffffffffffffffffffffff166318160ddd6040518163ffffffff1660e01b815260040160206040518083038186803b1580156119d357600080fd5b505afa1580156119e7573d6000803e3d6000fd5b505050506040513d60208110156119fd57600080fd5b810190808051906020019092919050505090506000611a3982611a2b6103e8866125b990919063ffffffff16565b61263f90919063ffffffff16565b90506107d08111611a95576040517f08c379a000000000000000000000000000000000000000000000000000000000815260040180806020018281038252602c8152602001806159e7602c913960400191505060405180910390fd5b6000611ad5611aa2610f78565b611ac789611ab9878961335290919063ffffffff16565b6125b990919063ffffffff16565b61263f90919063ffffffff16565b90506000611b1284611b046103e8611af6868a61335290919063ffffffff16565b6125b990919063ffffffff16565b61263f90919063ffffffff16565b90506107d08111611b6e576040517f08c379a000000000000000000000000000000000000000000000000000000000815260040180806020018281038252602c815260200180615ad9602c913960400191505060405180910390fd5b6000611c05611c0084600b6040518060200160405290816000820160009054906101000a90047bffffffffffffffffffffffffffffffffffffffffffffffffffffffff167bffffffffffffffffffffffffffffffffffffffffffffffffffffffff167bffffffffffffffffffffffffffffffffffffffffffffffffffffffff168152505061326790919063ffffffff16565b61333d565b71ffffffffffffffffffffffffffffffffffff169050611c25338a612689565b3373ffffffffffffffffffffffffffffffffffffffff166108fc829081150290604051600060405180830381858888f19350505050158015611c6b573d6000803e3d6000fd5b506001975050505050505050919050565b60008060008373ffffffffffffffffffffffffffffffffffffffff1673ffffffffffffffffffffffffffffffffffffffff168152602001908152602001600020549050919050565b611ccc61284d565b73ffffffffffffffffffffffffffffffffffffffff16600560019054906101000a900473ffffffffffffffffffffffffffffffffffffffff1673ffffffffffffffffffffffffffffffffffffffff1614611d8e576040517f08c379a00000000000000000000000000000000000000000000000000000000081526004018080602001828103825260208152602001807f4f776e61626c653a2063616c6c6572206973206e6f7420746865206f776e657281525060200191505060405180910390fd5b600073ffffffffffffffffffffffffffffffffffffffff16600560019054906101000a900473ffffffffffffffffffffffffffffffffffffffff1673ffffffffffffffffffffffffffffffffffffffff167f8be0079c531659141344cd1fd0a4f28419497f9722a3daafe3b4186f6b6457e060405160405180910390a36000600560016101000a81548173ffffffffffffffffffffffffffffffffffffffff021916908373ffffffffffffffffffffffffffffffffffffffff160217905550565b6000600560019054906101000a900473ffffffffffffffffffffffffffffffffffffffff16905090565b606060048054600181600116156101000203166002900480601f016020809104026020016040519081016040528092919081815260200182805460018160011615610100020316600290048015611f115780601f10611ee657610100808354040283529160200191611f11565b820191906000526020600020905b815481529060010190602001808311611ef457829003601f168201915b5050505050905090565b600b8060000160009054906101000a90047bffffffffffffffffffffffffffffffffffffffffffffffffffffffff16905081565b6201518081565b6000612019611f6361284d565b8461201485604051806060016040528060258152602001615b9e6025913960016000611f8d61284d565b73ffffffffffffffffffffffffffffffffffffffff1673ffffffffffffffffffffffffffffffffffffffff16815260200190815260200160002060008a73ffffffffffffffffffffffffffffffffffffffff1673ffffffffffffffffffffffffffffffffffffffff16815260200190815260200160002054612f589092919063ffffffff16565b612855565b6001905092915050565b600061203761203061284d565b8484612c97565b6001905092915050565b610e1081565b600960009054906101000a900463ffffffff1681565b60065481565b6000600160008473ffffffffffffffffffffffffffffffffffffffff1673ffffffffffffffffffffffffffffffffffffffff16815260200190815260200160002060008373ffffffffffffffffffffffffffffffffffffffff1673ffffffffffffffffffffffffffffffffffffffff16815260200190815260200160002054905092915050565b6120f261284d565b73ffffffffffffffffffffffffffffffffffffffff16600560019054906101000a900473ffffffffffffffffffffffffffffffffffffffff1673ffffffffffffffffffffffffffffffffffffffff16146121b4576040517f08c379a00000000000000000000000000000000000000000000000000000000081526004018080602001828103825260208152602001807f4f776e61626c653a2063616c6c6572206973206e6f7420746865206f776e657281525060200191505060405180910390fd5b600073ffffffffffffffffffffffffffffffffffffffff168173ffffffffffffffffffffffffffffffffffffffff16141561223a576040517f08c379a00000000000000000000000000000000000000000000000000000000081526004018080602001828103825260268152602001806158f26026913960400191505060405180910390fd5b8073ffffffffffffffffffffffffffffffffffffffff16600560019054906101000a900473ffffffffffffffffffffffffffffffffffffffff1673ffffffffffffffffffffffffffffffffffffffff167f8be0079c531659141344cd1fd0a4f28419497f9722a3daafe3b4186f6b6457e060405160405180910390a380600560016101000a81548173ffffffffffffffffffffffffffffffffffffffff021916908373ffffffffffffffffffffffffffffffffffffffff16021790555050565b60008061230561339c565b905060006123116116c2565b90506105dc81111561232d5761232781836137de565b506124e0565b610320811115612352576123418183614b14565b5061234c81836137de565b506124df565b6000670de0b6b3a7640000905060006123f66123f183600c6040518060200160405290816000820160009054906101000a90047bffffffffffffffffffffffffffffffffffffffffffffffffffffffff167bffffffffffffffffffffffffffffffffffffffffffffffffffffffff167bffffffffffffffffffffffffffffffffffffffffffffffffffffffff168152505061326790919063ffffffff16565b61333d565b71ffffffffffffffffffffffffffffffffffff16905060006124a361249e83600a6040518060200160405290816000820160009054906101000a90047bffffffffffffffffffffffffffffffffffffffffffffffffffffffff167bffffffffffffffffffffffffffffffffffffffffffffffffffffffff167bffffffffffffffffffffffffffffffffffffffffffffffffffffffff168152505061326790919063ffffffff16565b61333d565b71ffffffffffffffffffffffffffffffffffff169050828111156124d1576124cb8486614b14565b506124db565b6124d96150b5565b505b5050505b5b600061252b610e1061251d620f424061250f8763ffffffff16612501610f78565b6125b990919063ffffffff16565b61263f90919063ffffffff16565b61263f90919063ffffffff16565b905061253733826130a0565b6001935050505090565b60008060008060006125727f0000000000000000000000000000000000000000000000000000000000000000612a4c565b809450819550829650505050600960009054906101000a900463ffffffff1682039050610e108163ffffffff16106125ae576125ac6122fa565b505b600194505050505090565b6000808314156125cc5760009050612639565b60008284029050828482816125dd57fe5b0414612634576040517f08c379a0000000000000000000000000000000000000000000000000000000008152600401808060200182810382526021815260200180615a6f6021913960400191505060405180910390fd5b809150505b92915050565b600061268183836040518060400160405280601a81526020017f536166654d6174683a206469766973696f6e206279207a65726f000000000000815250615386565b905092915050565b600073ffffffffffffffffffffffffffffffffffffffff168273ffffffffffffffffffffffffffffffffffffffff16141561270f576040517f08c379a0000000000000000000000000000000000000000000000000000000008152600401808060200182810382526021815260200180615ab86021913960400191505060405180910390fd5b61271b8260008361544c565b612786816040518060600160405280602281526020016158d0602291396000808673ffffffffffffffffffffffffffffffffffffffff1673ffffffffffffffffffffffffffffffffffffffff16815260200190815260200160002054612f589092919063ffffffff16565b6000808473ffffffffffffffffffffffffffffffffffffffff1673ffffffffffffffffffffffffffffffffffffffff168152602001908152602001600020819055506127dd8160025461335290919063ffffffff16565b600281905550600073ffffffffffffffffffffffffffffffffffffffff168273ffffffffffffffffffffffffffffffffffffffff167fddf252ad1be2c89b69c2b068fc378daa952ba7f163c4a11628f55a4df523b3ef836040518082815260200191505060405180910390a35050565b600033905090565b600073ffffffffffffffffffffffffffffffffffffffff168373ffffffffffffffffffffffffffffffffffffffff1614156128db576040517f08c379a0000000000000000000000000000000000000000000000000000000008152600401808060200182810382526024815260200180615b4d6024913960400191505060405180910390fd5b600073ffffffffffffffffffffffffffffffffffffffff168273ffffffffffffffffffffffffffffffffffffffff161415612961576040517f08c379a00000000000000000000000000000000000000000000000000000000081526004018080602001828103825260228152602001806159186022913960400191505060405180910390fd5b80600160008573ffffffffffffffffffffffffffffffffffffffff1673ffffffffffffffffffffffffffffffffffffffff16815260200190815260200160002060008473ffffffffffffffffffffffffffffffffffffffff1673ffffffffffffffffffffffffffffffffffffffff168152602001908152602001600020819055508173ffffffffffffffffffffffffffffffffffffffff168373ffffffffffffffffffffffffffffffffffffffff167f8c5be1e5ebec7d5bd14f71427d1e84f3dd0314c0f7b2291e5b200ac8c7c3b925836040518082815260200191505060405180910390a3505050565b6000806000612a59615451565b90508373ffffffffffffffffffffffffffffffffffffffff16635909c0d56040518163ffffffff1660e01b815260040160206040518083038186803b158015612aa157600080fd5b505afa158015612ab5573d6000803e3d6000fd5b505050506040513d6020811015612acb57600080fd5b810190808051906020019092919050505092508373ffffffffffffffffffffffffffffffffffffffff16635a3d54936040518163ffffffff1660e01b815260040160206040518083038186803b158015612b2457600080fd5b505afa158015612b38573d6000803e3d6000fd5b505050506040513d6020811015612b4e57600080fd5b8101908080519060200190929190505050915060008060008673ffffffffffffffffffffffffffffffffffffffff16630902f1ac6040518163ffffffff1660e01b815260040160606040518083038186803b158015612bac57600080fd5b505afa158015612bc0573d6000803e3d6000fd5b505050506040513d6060811015612bd657600080fd5b810190808051906020019092919080519060200190929190805190602001909291905050509250925092508363ffffffff168163ffffffff1614612c8d57600081850390508063ffffffff16612c2c8486615467565b600001517bffffffffffffffffffffffffffffffffffffffffffffffffffffffff1602870196508063ffffffff16612c648585615467565b600001517bffffffffffffffffffffffffffffffffffffffffffffffffffffffff160286019550505b5050509193909250565b600073ffffffffffffffffffffffffffffffffffffffff168373ffffffffffffffffffffffffffffffffffffffff161415612d1d576040517f08c379a0000000000000000000000000000000000000000000000000000000008152600401808060200182810382526025815260200180615b056025913960400191505060405180910390fd5b600073ffffffffffffffffffffffffffffffffffffffff168273ffffffffffffffffffffffffffffffffffffffff161415612da3576040517f08c379a00000000000000000000000000000000000000000000000000000000081526004018080602001828103825260238152602001806158ad6023913960400191505060405180910390fd5b612dae83838361544c565b612e1981604051806060016040528060268152602001615966602691396000808773ffffffffffffffffffffffffffffffffffffffff1673ffffffffffffffffffffffffffffffffffffffff16815260200190815260200160002054612f589092919063ffffffff16565b6000808573ffffffffffffffffffffffffffffffffffffffff1673ffffffffffffffffffffffffffffffffffffffff16815260200190815260200160002081905550612eac816000808573ffffffffffffffffffffffffffffffffffffffff1673ffffffffffffffffffffffffffffffffffffffff1681526020019081526020016000205461301890919063ffffffff16565b6000808473ffffffffffffffffffffffffffffffffffffffff1673ffffffffffffffffffffffffffffffffffffffff168152602001908152602001600020819055508173ffffffffffffffffffffffffffffffffffffffff168373ffffffffffffffffffffffffffffffffffffffff167fddf252ad1be2c89b69c2b068fc378daa952ba7f163c4a11628f55a4df523b3ef836040518082815260200191505060405180910390a3505050565b6000838311158290613005576040517f08c379a00000000000000000000000000000000000000000000000000000000081526004018080602001828103825283818151815260200191508051906020019080838360005b83811015612fca578082015181840152602081019050612faf565b50505050905090810190601f168015612ff75780820380516001836020036101000a031916815260200191505b509250505060405180910390fd5b5060008385039050809150509392505050565b600080828401905083811015613096576040517f08c379a000000000000000000000000000000000000000000000000000000000815260040180806020018281038252601b8152602001807f536166654d6174683a206164646974696f6e206f766572666c6f77000000000081525060200191505060405180910390fd5b8091505092915050565b600073ffffffffffffffffffffffffffffffffffffffff168273ffffffffffffffffffffffffffffffffffffffff161415613143576040517f08c379a000000000000000000000000000000000000000000000000000000000815260040180806020018281038252601f8152602001807f45524332303a206d696e7420746f20746865207a65726f20616464726573730081525060200191505060405180910390fd5b61314f6000838361544c565b6131648160025461301890919063ffffffff16565b6002819055506131bb816000808573ffffffffffffffffffffffffffffffffffffffff1673ffffffffffffffffffffffffffffffffffffffff1681526020019081526020016000205461301890919063ffffffff16565b6000808473ffffffffffffffffffffffffffffffffffffffff1673ffffffffffffffffffffffffffffffffffffffff168152602001908152602001600020819055508173ffffffffffffffffffffffffffffffffffffffff16600073ffffffffffffffffffffffffffffffffffffffff167fddf252ad1be2c89b69c2b068fc378daa952ba7f163c4a11628f55a4df523b3ef836040518082815260200191505060405180910390a35050565b61326f615596565b6000808314806132d0575083600001517bffffffffffffffffffffffffffffffffffffffffffffffffffffffff16838486600001517bffffffffffffffffffffffffffffffffffffffffffffffffffffffff1602925082816132cd57fe5b04145b613325576040517f08c379a0000000000000000000000000000000000000000000000000000000008152600401808060200182810382526023815260200180615b2a6023913960400191505060405180910390fd5b60405180602001604052808281525091505092915050565b6000607060ff168260000151901c9050919050565b600061339483836040518060400160405280601e81526020017f536166654d6174683a207375627472616374696f6e206f766572666c6f770000815250612f58565b905092915050565b60008060008060006133cd7f0000000000000000000000000000000000000000000000000000000000000000612a4c565b809450819550829650505050600073c02aaa39b223fe8d0a0e5c4f27ead9083c756cc273ffffffffffffffffffffffffffffffffffffffff167f000000000000000000000000000000000000000000000000000000000000000073ffffffffffffffffffffffffffffffffffffffff1610613448578361344a565b845b90506134757f0000000000000000000000000000000000000000000000000000000000000000612a4c565b8095508196508297505050506000736b175474e89094c44da98b954eedeac495271d0f73ffffffffffffffffffffffffffffffffffffffff1673c02aaa39b223fe8d0a0e5c4f27ead9083c756cc273ffffffffffffffffffffffffffffffffffffffff16106134e457846134e6565b855b90506000736b175474e89094c44da98b954eedeac495271d0f73ffffffffffffffffffffffffffffffffffffffff1673c02aaa39b223fe8d0a0e5c4f27ead9083c756cc273ffffffffffffffffffffffffffffffffffffffff161061354b578661354d565b855b9050600960009054906101000a900463ffffffff1685039350610e108463ffffffff1610156135c7576040517f08c379a000000000000000000000000000000000000000000000000000000000815260040180806020018281038252603681526020018061598c6036913960400191505060405180910390fd5b60405180602001604052808563ffffffff166006548503816135e557fe5b047bffffffffffffffffffffffffffffffffffffffffffffffffffffffff16815250600a60008201518160000160006101000a8154817bffffffffffffffffffffffffffffffffffffffffffffffffffffffff02191690837bffffffffffffffffffffffffffffffffffffffffffffffffffffffff16021790555090505060405180602001604052808563ffffffff1660075484038161368157fe5b047bffffffffffffffffffffffffffffffffffffffffffffffffffffffff16815250600b60008201518160000160006101000a8154817bffffffffffffffffffffffffffffffffffffffffffffffffffffffff02191690837bffffffffffffffffffffffffffffffffffffffffffffffffffffffff16021790555090505060405180602001604052808563ffffffff1660085486038161371d57fe5b047bffffffffffffffffffffffffffffffffffffffffffffffffffffffff16815250600c60008201518160000160006101000a8154817bffffffffffffffffffffffffffffffffffffffffffffffffffffffff02191690837bffffffffffffffffffffffffffffffffffffffffffffffffffffffff16021790555090505081600681905550806007819055508260088190555084600960006101000a81548163ffffffff021916908363ffffffff1602179055508397505050505050505090565b600080670de0b6b3a76400009050600061388361387e83600c6040518060200160405290816000820160009054906101000a90047bffffffffffffffffffffffffffffffffffffffffffffffffffffffff167bffffffffffffffffffffffffffffffffffffffffffffffffffffffff167bffffffffffffffffffffffffffffffffffffffffffffffffffffffff168152505061326790919063ffffffff16565b61333d565b71ffffffffffffffffffffffffffffffffffff169050600061393061392b83600a6040518060200160405290816000820160009054906101000a90047bffffffffffffffffffffffffffffffffffffffffffffffffffffffff167bffffffffffffffffffffffffffffffffffffffffffffffffffffffff167bffffffffffffffffffffffffffffffffffffffffffffffffffffffff168152505061326790919063ffffffff16565b61333d565b71ffffffffffffffffffffffffffffffffffff16905060008060008060007f000000000000000000000000000000000000000000000000000000000000000073ffffffffffffffffffffffffffffffffffffffff16630902f1ac6040518163ffffffff1660e01b815260040160606040518083038186803b1580156139b457600080fd5b505afa1580156139c8573d6000803e3d6000fd5b505050506040513d60608110156139de57600080fd5b8101908080519060200190929190805190602001909291908051906020019092919050505080935081945082955050505073c02aaa39b223fe8d0a0e5c4f27ead9083c756cc273ffffffffffffffffffffffffffffffffffffffff167f000000000000000000000000000000000000000000000000000000000000000073ffffffffffffffffffffffffffffffffffffffff1610613a7c5782613a7e565b815b6dffffffffffffffffffffffffffff16945073c02aaa39b223fe8d0a0e5c4f27ead9083c756cc273ffffffffffffffffffffffffffffffffffffffff167f000000000000000000000000000000000000000000000000000000000000000073ffffffffffffffffffffffffffffffffffffffff1610613afd5781613aff565b825b6dffffffffffffffffffffffffffff1693505050506000600d60009054906101000a900473ffffffffffffffffffffffffffffffffffffffff1673ffffffffffffffffffffffffffffffffffffffff166318160ddd6040518163ffffffff1660e01b815260040160206040518083038186803b158015613b7e57600080fd5b505afa158015613b92573d6000803e3d6000fd5b505050506040513d6020811015613ba857600080fd5b81019080805190602001909291905050509050858411156142b0576000613bfe87613bf0612710613be28b8a61335290919063ffffffff16565b6125b990919063ffffffff16565b61263f90919063ffffffff16565b905060006101f490506103e88b1015613c1a5760009050613c2a565b6104b08b1015613c2957606490505b5b6000613c65612710613c5786613c49868861301890919063ffffffff16565b6125b990919063ffffffff16565b61263f90919063ffffffff16565b90506000613c9762015180613c898e63ffffffff16856125b990919063ffffffff16565b61263f90919063ffffffff16565b90506000613cc36103e8613cb560038a6125b990919063ffffffff16565b61263f90919063ffffffff16565b9050613cea87613cdc8a8e6125b990919063ffffffff16565b61263f90919063ffffffff16565b9950613d81613d7c8b600a6040518060200160405290816000820160009054906101000a90047bffffffffffffffffffffffffffffffffffffffffffffffffffffffff167bffffffffffffffffffffffffffffffffffffffffffffffffffffffff167bffffffffffffffffffffffffffffffffffffffffffffffffffffffff168152505061326790919063ffffffff16565b61333d565b71ffffffffffffffffffffffffffffffffffff1698508a891115613e3957613dd88b613dca612710613dbc8f8e61335290919063ffffffff16565b6125b990919063ffffffff16565b61263f90919063ffffffff16565b945061014a851115613e38576000613dfb61012c8761335290919063ffffffff16565b90506101f4811115613e0d576101f490505b613e34612710613e26838b6125b990919063ffffffff16565b61263f90919063ffffffff16565b9150505b5b6000818310613e485781613e4a565b825b9050600d60009054906101000a900473ffffffffffffffffffffffffffffffffffffffff1673ffffffffffffffffffffffffffffffffffffffff166340c10f1930836040518363ffffffff1660e01b8152600401808373ffffffffffffffffffffffffffffffffffffffff1673ffffffffffffffffffffffffffffffffffffffff16815260200182815260200192505050602060405180830381600087803b158015613ef557600080fd5b505af1158015613f09573d6000803e3d6000fd5b505050506040513d6020811015613f1f57600080fd5b8101908080519060200190929190505050506060600267ffffffffffffffff81118015613f4b57600080fd5b50604051908082528060200260200182016040528015613f7a5781602001602082028036833780820191505090505b5090507f000000000000000000000000000000000000000000000000000000000000000081600081518110613fab57fe5b602002602001019073ffffffffffffffffffffffffffffffffffffffff16908173ffffffffffffffffffffffffffffffffffffffff16815250507f000000000000000000000000000000000000000000000000000000000000000073ffffffffffffffffffffffffffffffffffffffff1663ad5c46486040518163ffffffff1660e01b815260040160206040518083038186803b15801561404b57600080fd5b505afa15801561405f573d6000803e3d6000fd5b505050506040513d602081101561407557600080fd5b81019080805190602001909291905050508160018151811061409357fe5b602002602001019073ffffffffffffffffffffffffffffffffffffffff16908173ffffffffffffffffffffffffffffffffffffffff16815250507f000000000000000000000000000000000000000000000000000000000000000073ffffffffffffffffffffffffffffffffffffffff166318cbafe58360008430426040518663ffffffff1660e01b815260040180868152602001858152602001806020018473ffffffffffffffffffffffffffffffffffffffff1673ffffffffffffffffffffffffffffffffffffffff168152602001838152602001828103825285818151815260200191508051906020019060200280838360005b838110156141a557808201518184015260208101905061418a565b505050509050019650505050505050600060405180830381600087803b1580156141ce57600080fd5b505af11580156141e2573d6000803e3d6000fd5b505050506040513d6000823e3d601f19601f82011682018060405250602081101561420c57600080fd5b810190808051604051939291908464010000000082111561422c57600080fd5b8382019150602082018581111561424257600080fd5b825186602082028301116401000000008211171561425f57600080fd5b8083526020830192505050908051906020019060200280838360005b8381101561429657808201518184015260208101905061427b565b505050509050016040525050505050505050505050614b04565b60006142eb876142dd6127106142cf898c61335290919063ffffffff16565b6125b990919063ffffffff16565b61263f90919063ffffffff16565b9050600061431661271061430885856125b990919063ffffffff16565b61263f90919063ffffffff16565b905060006143486201518061433a8d63ffffffff16856125b990919063ffffffff16565b61263f90919063ffffffff16565b905060006143746103e86143666003896125b990919063ffffffff16565b61263f90919063ffffffff16565b905061439b8661438d898d6125b990919063ffffffff16565b61263f90919063ffffffff16565b985061443261442d8a600a6040518060200160405290816000820160009054906101000a90047bffffffffffffffffffffffffffffffffffffffffffffffffffffffff167bffffffffffffffffffffffffffffffffffffffffffffffffffffffff167bffffffffffffffffffffffffffffffffffffffffffffffffffffffff168152505061326790919063ffffffff16565b61333d565b71ffffffffffffffffffffffffffffffffffff169750898810156144ea576144898a61447b61271061446d8c8f61335290919063ffffffff16565b6125b990919063ffffffff16565b61263f90919063ffffffff16565b935061014a8411156144e95760006144ac61012c8661335290919063ffffffff16565b90506101f48111156144be576101f490505b6144e56127106144d7838a6125b990919063ffffffff16565b61263f90919063ffffffff16565b9150505b5b60008183106144f957816144fb565b825b9050600061459461458f83600c6040518060200160405290816000820160009054906101000a90047bffffffffffffffffffffffffffffffffffffffffffffffffffffffff167bffffffffffffffffffffffffffffffffffffffffffffffffffffffff167bffffffffffffffffffffffffffffffffffffffffffffffffffffffff168152505061326790919063ffffffff16565b61333d565b71ffffffffffffffffffffffffffffffffffff16905060006145c060024761263f90919063ffffffff16565b9050808211156145ce578091505b6060600267ffffffffffffffff811180156145e857600080fd5b506040519080825280602002602001820160405280156146175781602001602082028036833780820191505090505b5090507f000000000000000000000000000000000000000000000000000000000000000073ffffffffffffffffffffffffffffffffffffffff1663ad5c46486040518163ffffffff1660e01b815260040160206040518083038186803b15801561468057600080fd5b505afa158015614694573d6000803e3d6000fd5b505050506040513d60208110156146aa57600080fd5b8101908080519060200190929190505050816000815181106146c857fe5b602002602001019073ffffffffffffffffffffffffffffffffffffffff16908173ffffffffffffffffffffffffffffffffffffffff16815250507f00000000000000000000000000000000000000000000000000000000000000008160018151811061473057fe5b602002602001019073ffffffffffffffffffffffffffffffffffffffff16908173ffffffffffffffffffffffffffffffffffffffff16815250507f000000000000000000000000000000000000000000000000000000000000000073ffffffffffffffffffffffffffffffffffffffff16637ff36ab58460008430426040518663ffffffff1660e01b815260040180858152602001806020018473ffffffffffffffffffffffffffffffffffffffff1673ffffffffffffffffffffffffffffffffffffffff168152602001838152602001828103825285818151815260200191508051906020019060200280838360005b8381101561483c578082015181840152602081019050614821565b50505050905001955050505050506000604051808303818588803b15801561486357600080fd5b505af1158015614877573d6000803e3d6000fd5b50505050506040513d6000823e3d601f19601f8201168201806040525060208110156148a257600080fd5b81019080805160405193929190846401000000008211156148c257600080fd5b838201915060208201858111156148d857600080fd5b82518660208202830111640100000000821117156148f557600080fd5b8083526020830192505050908051906020019060200280838360005b8381101561492c578082015181840152602081019050614911565b5050505090500160405250505050600d60009054906101000a900473ffffffffffffffffffffffffffffffffffffffff1673ffffffffffffffffffffffffffffffffffffffff166370a08231306040518263ffffffff1660e01b8152600401808273ffffffffffffffffffffffffffffffffffffffff1673ffffffffffffffffffffffffffffffffffffffff16815260200191505060206040518083038186803b1580156149d957600080fd5b505afa1580156149ed573d6000803e3d6000fd5b505050506040513d6020811015614a0357600080fd5b81019080805190602001909291905050509350600d60009054906101000a900473ffffffffffffffffffffffffffffffffffffffff1673ffffffffffffffffffffffffffffffffffffffff16639dc29fac30866040518363ffffffff1660e01b8152600401808373ffffffffffffffffffffffffffffffffffffffff1673ffffffffffffffffffffffffffffffffffffffff16815260200182815260200192505050602060405180830381600087803b158015614abf57600080fd5b505af1158015614ad3573d6000803e3d6000fd5b505050506040513d6020811015614ae957600080fd5b81019080805190602001909291905050505050505050505050505b6001965050505050505092915050565b600080600190506103e8841015614b2e5760649050614b3e565b6104b0841015614b3d57600a90505b5b6000614b9b62015180614b8d6103e8614b7f614b58610f78565b614b718a63ffffffff16896125b990919063ffffffff16565b6125b990919063ffffffff16565b61263f90919063ffffffff16565b61263f90919063ffffffff16565b905060008060007f000000000000000000000000000000000000000000000000000000000000000073ffffffffffffffffffffffffffffffffffffffff16630902f1ac6040518163ffffffff1660e01b815260040160606040518083038186803b158015614c0857600080fd5b505afa158015614c1c573d6000803e3d6000fd5b505050506040513d6060811015614c3257600080fd5b81019080805190602001909291908051906020019092919080519060200190929190505050809350819450829550505050600073c02aaa39b223fe8d0a0e5c4f27ead9083c756cc273ffffffffffffffffffffffffffffffffffffffff167f000000000000000000000000000000000000000000000000000000000000000073ffffffffffffffffffffffffffffffffffffffff1610614cd25782614cd4565b835b6dffffffffffffffffffffffffffff1690506000614d106103e8614d026003856125b990919063ffffffff16565b61263f90919063ffffffff16565b90506000818710614d215781614d23565b865b9050614d2f30826130a0565b6060600267ffffffffffffffff81118015614d4957600080fd5b50604051908082528060200260200182016040528015614d785781602001602082028036833780820191505090505b5090507f000000000000000000000000000000000000000000000000000000000000000081600081518110614da957fe5b602002602001019073ffffffffffffffffffffffffffffffffffffffff16908173ffffffffffffffffffffffffffffffffffffffff16815250507f000000000000000000000000000000000000000000000000000000000000000073ffffffffffffffffffffffffffffffffffffffff1663ad5c46486040518163ffffffff1660e01b815260040160206040518083038186803b158015614e4957600080fd5b505afa158015614e5d573d6000803e3d6000fd5b505050506040513d6020811015614e7357600080fd5b810190808051906020019092919050505081600181518110614e9157fe5b602002602001019073ffffffffffffffffffffffffffffffffffffffff16908173ffffffffffffffffffffffffffffffffffffffff16815250507f000000000000000000000000000000000000000000000000000000000000000073ffffffffffffffffffffffffffffffffffffffff166318cbafe58360008430426040518663ffffffff1660e01b815260040180868152602001858152602001806020018473ffffffffffffffffffffffffffffffffffffffff1673ffffffffffffffffffffffffffffffffffffffff168152602001838152602001828103825285818151815260200191508051906020019060200280838360005b83811015614fa3578082015181840152602081019050614f88565b505050509050019650505050505050600060405180830381600087803b158015614fcc57600080fd5b505af1158015614fe0573d6000803e3d6000fd5b505050506040513d6000823e3d601f19601f82011682018060405250602081101561500a57600080fd5b810190808051604051939291908464010000000082111561502a57600080fd5b8382019150602082018581111561504057600080fd5b825186602082028301116401000000008211171561505d57600080fd5b8083526020830192505050908051906020019060200280838360005b83811015615094578082015181840152602081019050615079565b50505050905001604052505050506001995050505050505050505092915050565b600080479050600061515261514d83600a6040518060200160405290816000820160009054906101000a90047bffffffffffffffffffffffffffffffffffffffffffffffffffffffff167bffffffffffffffffffffffffffffffffffffffffffffffffffffffff167bffffffffffffffffffffffffffffffffffffffffffffffffffffffff168152505061326790919063ffffffff16565b61333d565b71ffffffffffffffffffffffffffffffffffff1690506000600d60009054906101000a900473ffffffffffffffffffffffffffffffffffffffff1673ffffffffffffffffffffffffffffffffffffffff166318160ddd6040518163ffffffff1660e01b815260040160206040518083038186803b1580156151d257600080fd5b505afa1580156151e6573d6000803e3d6000fd5b505050506040513d60208110156151fc57600080fd5b8101908080519060200190929190505050905060006152388361522a6103e8856125b990919063ffffffff16565b61263f90919063ffffffff16565b9050610bb881111561524a57610bb890505b600d60009054906101000a900473ffffffffffffffffffffffffffffffffffffffff1673ffffffffffffffffffffffffffffffffffffffff1663bc4f2d6d826040518263ffffffff1660e01b815260040180828152602001915050602060405180830381600087803b1580156152bf57600080fd5b505af11580156152d3573d6000803e3d6000fd5b505050506040513d60208110156152e957600080fd5b8101908080519060200190929190505050507f000000000000000000000000000000000000000000000000000000000000000073ffffffffffffffffffffffffffffffffffffffff1663fff6cae96040518163ffffffff1660e01b8152600401600060405180830381600087803b15801561536357600080fd5b505af1158015615377573d6000803e3d6000fd5b50505050600194505050505090565b60008083118290615432576040517f08c379a00000000000000000000000000000000000000000000000000000000081526004018080602001828103825283818151815260200191508051906020019080838360005b838110156153f75780820151818401526020810190506153dc565b50505050905090810190601f1680156154245780820380516001836020036101000a031916815260200191505b509250505060405180910390fd5b50600083858161543e57fe5b049050809150509392505050565b505050565b6000640100000000428161546157fe5b06905090565b61546f6155a9565b6000826dffffffffffffffffffffffffffff16116154f5576040517f08c379a00000000000000000000000000000000000000000000000000000000081526004018080602001828103825260178152602001807f4669786564506f696e743a204449565f42595f5a45524f00000000000000000081525060200191505060405180910390fd5b6040518060200160405280836dffffffffffffffffffffffffffff16607060ff16866dffffffffffffffffffffffffffff167bffffffffffffffffffffffffffffffffffffffffffffffffffffffff16901b7bffffffffffffffffffffffffffffffffffffffffffffffffffffffff168161556c57fe5b047bffffffffffffffffffffffffffffffffffffffffffffffffffffffff16815250905092915050565b6040518060200160405280600081525090565b604051806020016040528060007bffffffffffffffffffffffffffffffffffffffffffffffffffffffff1681525090565b60008060006155e98585615735565b91509150858282604051602001808373ffffffffffffffffffffffffffffffffffffffff1673ffffffffffffffffffffffffffffffffffffffff1660601b81526014018273ffffffffffffffffffffffffffffffffffffffff1673ffffffffffffffffffffffffffffffffffffffff1660601b8152601401925050506040516020818303038152906040528051906020012060405160200180807fff000000000000000000000000000000000000000000000000000000000000008152506001018373ffffffffffffffffffffffffffffffffffffffff1673ffffffffffffffffffffffffffffffffffffffff1660601b8152601401828152602001807f96e8ac4277198ff8b6f785478aa9a39f403cb768dd02cbee326c3e7da348845f815250602001925050506040516020818303038152906040528051906020012060001c925050509392505050565b6000808273ffffffffffffffffffffffffffffffffffffffff168473ffffffffffffffffffffffffffffffffffffffff1614156157bd576040517f08c379a00000000000000000000000000000000000000000000000000000000081526004018080602001828103825260258152602001806159c26025913960400191505060405180910390fd5b8273ffffffffffffffffffffffffffffffffffffffff168473ffffffffffffffffffffffffffffffffffffffff16106157f75782846157fa565b83835b8092508193505050600073ffffffffffffffffffffffffffffffffffffffff168273ffffffffffffffffffffffffffffffffffffffff1614156158a5576040517f08c379a000000000000000000000000000000000000000000000000000000000815260040180806020018281038252601e8152602001807f556e697377617056324c6962726172793a205a45524f5f41444452455353000081525060200191505060405180910390fd5b925092905056fe45524332303a207472616e7366657220746f20746865207a65726f206164647265737345524332303a206275726e20616d6f756e7420657863656564732062616c616e63654f776e61626c653a206e6577206f776e657220697320746865207a65726f206164647265737345524332303a20617070726f766520746f20746865207a65726f20616464726573737468652076616d70697265732061726520746f6f207765616b20746f20636173742074686973207370656c6c45524332303a207472616e7366657220616d6f756e7420657863656564732062616c616e63654d6f72652074696d65206d7573742070617373206265666f726520746865206e6578742072697475616c2063616e2062652068656c64556e697377617056324c6962726172793a204944454e544943414c5f4144445245535345535468652056616d706972657320617265207374696c6c20686964696e6720696e207468656972206c6169727343616e6e6f7420706f69736f6e206d6f72652076616d7069726573207468616e20796f75206861766520666f756e644e656564206d6f726520626c6f6f6420746f20636f6e74616d696e6174652069742077697468206761726c6963536166654d6174683a206d756c7469706c69636174696f6e206f766572666c6f7745524332303a207472616e7366657220616d6f756e74206578636565647320616c6c6f77616e636545524332303a206275726e2066726f6d20746865207a65726f20616464726573734265206d6f7265206361726566756c21204e6f77207468652076616d70697265732061726520686964696e6745524332303a207472616e736665722066726f6d20746865207a65726f20616464726573734669786564506f696e743a204d554c5449504c49434154494f4e5f4f564552464c4f5745524332303a20617070726f76652066726f6d20746865207a65726f206164647265737343616e6e6f74206b696c6c206d6f72652076616d7069726573207468616e20796f75206861766520666f756e6445524332303a2064656372656173656420616c6c6f77616e63652062656c6f77207a65726fa2646970667358221220ee61e799f34e5914b79f465bbc00cd63e816edc1a7bddeca678057237024917b64736f6c6343000606003345524332303a20617070726f766520746f20746865207a65726f2061646472657373556e697377617056324c6962726172793a204944454e544943414c5f41444452455353455345524332303a20617070726f76652066726f6d20746865207a65726f2061646472657373",
  "immutableReferences": {
    "656": [
      {
        "length": 32,
        "start": 4382
      },
      {
        "length": 32,
        "start": 13393
      }
    ],
    "658": [
      {
        "length": 32,
        "start": 19364
      }
    ],
    "660": [
      {
        "length": 32,
        "start": 4180
      },
      {
        "length": 32,
        "start": 9550
      },
      {
        "length": 32,
        "start": 13225
      },
      {
        "length": 32,
        "start": 14672
      },
      {
        "length": 32,
        "start": 21245
      }
    ],
    "662": [
      {
        "length": 32,
        "start": 16359
      },
      {
        "length": 32,
        "start": 16591
      },
      {
        "length": 32,
        "start": 17948
      },
      {
        "length": 32,
        "start": 18284
      },
      {
        "length": 32,
        "start": 19941
      },
      {
        "length": 32,
        "start": 20173
      }
    ],
    "676": [
      {
        "length": 32,
        "start": 19602
      },
      {
        "length": 32,
        "start": 19837
      }
    ],
    "678": [
      {
        "length": 32,
        "start": 4305
      },
      {
        "length": 32,
        "start": 13320
      },
      {
        "length": 32,
        "start": 14908
      },
      {
        "length": 32,
        "start": 15037
      },
      {
        "length": 32,
        "start": 16255
      },
      {
        "length": 32,
        "start": 18180
      }
    ]
  },
  "source": "pragma solidity >=0.4.25 <0.7.0;\n\nimport \"@openzeppelin/contracts/math/SafeMath.sol\"; \nimport \"@openzeppelin/contracts/token/ERC20/ERC20.sol\";\nimport \"@openzeppelin/contracts/access/Ownable.sol\";\nimport \"@openzeppelin/contracts/utils/Address.sol\";\nimport \"./BloodVial.sol\";\n\nimport \"@uniswap/v2-periphery/contracts/interfaces/IUniswapV2Router02.sol\";\nimport '@uniswap/v2-core/contracts/interfaces/IUniswapV2Factory.sol';\nimport '@uniswap/v2-core/contracts/interfaces/IUniswapV2Pair.sol';\nimport '@uniswap/lib/contracts/libraries/FixedPoint.sol';\n\nimport '@uniswap/v2-periphery/contracts/libraries/UniswapV2OracleLibrary.sol';\nimport '@uniswap/v2-periphery/contracts/libraries/UniswapV2Library.sol';\n\n// this contract controlls the blood and acts in such a way that blood remains close to 1 Dai in value. It is not a hard stablecoin and can deviate somewhat from the peg. But over the time of a few days it should readjust and provide accurate values. \n\ncontract Vampire is ERC20,Ownable {\n\n\t\n\tusing SafeMath for uint256;\n\tusing Address for address;\n\tusing FixedPoint for *;\n\t\n\t\n    uint public constant PERIOD = 1 hours;  // this is the minimal time for the vwap oracle \n\tuint public constant EPOCH = 1 days;    // this is reference timescale for the contract\n\tuint constant MAX_UINT = 2**256 - 1;\n\n    IUniswapV2Pair immutable pairWethDai;\n    IUniswapV2Pair immutable pairVampireWeth;\n    IUniswapV2Pair immutable pairBloodWeth;\n\tIUniswapV2Router02 immutable routerV2;\n    \n    \n\taddress internal constant factory = 0x5C69bEe701ef814a2B6a3EDD4B1652CB9cc5aA6f ;\n\taddress internal constant router = 0x7a250d5630B4cF539739dF2C5dAcb4c659F2488D ;\n\t\n\taddress internal constant tokenWeth = 0xC02aaA39b223FE8D0A0e5C4F27eAD9083C756Cc2; //weth\n\t// mainnet weth 0xC02aaA39b223FE8D0A0e5C4F27eAD9083C756Cc2\n\t// kovan weth 0xd0A1E359811322d97991E03f863a0C30C2cF029C\n\t// ropsten weth 0xc778417E063141139Fce010982780140Aa0cD5Ab\n\taddress internal constant tokenDai = 0x6B175474E89094C44Da98b954EedeAC495271d0F; //dai\n\t\n\t// mainnet dai 0x6B175474E89094C44Da98b954EedeAC495271d0F\n\t// kovan dai 0x4F96Fe3b7A6Cf9725f59d353F723c1bDb64CA6Aa\n\t// ropsten dai 0xaD6D458402F60fD3Bd25163575031ACDce07538D\n\taddress internal immutable tokenVampire;\n\taddress internal immutable tokenBlood;\n\t\n\n    uint    public priceWethCumulativeLast;\n    uint    public priceDaiCumulativeLast;\n    uint    public priceBloodCumulativeLast;\n    uint32  public blockTimestampLast;\n    FixedPoint.uq112x112 public priceWethAverage; // price of weth in dai\n    FixedPoint.uq112x112 public priceDaiAverage; // price of dai in weth\n    FixedPoint.uq112x112 public priceBloodAverage; // price of vial in weth\n\t\n\tBloodVial internal bloodVial;\n\t\t\t\n\tconstructor(address bloodVial_) public ERC20(\"Vampire\",\"Vampires\") {\n\t\t\n\t\tbloodVial = BloodVial(bloodVial_);  \n\t\ttokenBlood = bloodVial_;\n\t\ttokenVampire = address(this);\n\t    \n\t\t_mint(msg.sender, 1000 * 10**18 ); \n\t\t\n        pairWethDai = IUniswapV2Pair(UniswapV2Library.pairFor(factory, tokenWeth, tokenDai));\n\t\tpairVampireWeth = IUniswapV2Pair(UniswapV2Library.pairFor(factory,address(this), tokenWeth)); \n\t\tpairBloodWeth = IUniswapV2Pair(UniswapV2Library.pairFor(factory, bloodVial_, tokenWeth)); \n\t\trouterV2 = IUniswapV2Router02(router);\n\t\tbloodVial.approve(router,MAX_UINT); \t\t\t\t// give uniswap the right to excahnge vials\n\t\t_approve(address(this),router,MAX_UINT); \t\t\t// give uniswap the right to excahnge vampires\n\t\t\n\t\t\t\n\t}\n\t\n    receive() external payable { } // payable fallback function\n\t\n\t \n\tfunction activateOracles() public onlyOwner {\n        // we initialise the two Uniswap pairs and seed the vwap oracle\n\t\t\t\n\t\tuint priceDummy1;\n\t\tuint priceDummy2;\n\t\t(priceDummy1,priceDummy2,blockTimestampLast) = UniswapV2OracleLibrary.currentCumulativePrices(address(pairBloodWeth));\n    \tpriceBloodCumulativeLast = (tokenBlood < tokenWeth ? priceDummy1 : priceDummy2);\n\t\t\n\t\t(priceDummy1,priceDummy2,blockTimestampLast) = UniswapV2OracleLibrary.currentCumulativePrices(address(pairWethDai));\n\t\tpriceWethCumulativeLast = (tokenWeth < tokenDai ? priceDummy1 : priceDummy2);\n\t\tpriceDaiCumulativeLast = (tokenWeth < tokenDai ? priceDummy2 : priceDummy1);\n\t\t\n\t} \n\t \n\t    \n    function updateOracle() internal returns (uint32){\n\t\t// this function updates the vwap oracle\n\t\t\n\t\tuint priceDummy1;\n\t\tuint priceDummy2;\n\t\tuint32 blockTimestamp;\n\t\tuint32 timeElapsed;\n\t\t\n\t\t(priceDummy1,priceDummy2,blockTimestamp) = UniswapV2OracleLibrary.currentCumulativePrices(address(pairBloodWeth));\n    \tuint priceBloodCumulative = (tokenBlood < tokenWeth ? priceDummy1 : priceDummy2);\n\t\t\n\t\t(priceDummy1,priceDummy2,blockTimestamp) = UniswapV2OracleLibrary.currentCumulativePrices(address(pairWethDai));\n\t\tuint priceWethCumulative = (tokenWeth < tokenDai ? priceDummy1 : priceDummy2);\n\t\tuint priceDaiCumulative = (tokenWeth < tokenDai ? priceDummy2 : priceDummy1);\n\t\t\n\t\ttimeElapsed = blockTimestamp - blockTimestampLast; // overflow is desired\n\t\t\n        // ensure that at least one full period has passed since the last update\n\t\trequire(timeElapsed >= PERIOD, 'More time must pass before the next ritual can be held');\n\n        priceWethAverage = FixedPoint.uq112x112(uint224((priceWethCumulative - priceWethCumulativeLast) / timeElapsed));\n        priceDaiAverage = FixedPoint.uq112x112(uint224((priceDaiCumulative - priceDaiCumulativeLast) / timeElapsed));\n        priceBloodAverage = FixedPoint.uq112x112(uint224((priceBloodCumulative - priceBloodCumulativeLast) / timeElapsed));\n        \n        priceWethCumulativeLast = priceWethCumulative; //price of token Weth in Dai\n        priceDaiCumulativeLast = priceDaiCumulative; //price of token Weth in Dai\n        priceBloodCumulativeLast = priceBloodCumulative; //price of token Weth in Dai\n        \n\t\tblockTimestampLast = blockTimestamp;\n\t\t\n\t\treturn timeElapsed;\n    }\n\n    \n\tfunction getDarkEnergy() public view returns (uint256 darkEnergy) {\t\n\t\t// darkEnergy is the fundamental security parameter. It is the ratio of guaranteed value in blood divided by the total collateral.\n\t\t// 1000 means that we can exactly gurantee all bloodVials. We aim for 1500 or 50% overcollateralisation \n\t\t\n\t\tuint256 ethReserves = address(this).balance;\n\t\tuint256 treasury = uint256(priceWethAverage.mul(ethReserves).decode144()); // value of contract eth in dai\n\t\tuint256 liabilities = bloodVial.totalSupply();  // fictional value of the blood assuming each vial is worth one dai\n\t\t\n\t\tdarkEnergy = treasury.mul(1000).div(liabilities);\n\t\t\n\t}\n\t\n\t\n    function darkRitual() internal returns (bool){ \n\t\t// the darkRitual calls a bloodRitual when enough time has passed. Otherwise it does nothing so the calling fucntion can proceed\n\t\t\n\t\tuint priceDummy1;\n\t\tuint priceDummy2;\n\t\tuint32 blockTimestamp;\n\t\tuint32 timeElapsed;\n\t\t\n\t\t(priceDummy1,priceDummy2,blockTimestamp) = UniswapV2OracleLibrary.currentCumulativePrices(address(pairBloodWeth));\t\n\t\ttimeElapsed = blockTimestamp - blockTimestampLast; // overflow is desired\n\t\t\n\t\tif (timeElapsed >= PERIOD) {\n\t\t\tbloodRitual();\n\t\t}\n\t\t \n\t\treturn true;\n\t}\n\t\t\n    function bloodRitual() public returns (bool) {\n\t\t// the bloodRitual tries to bring the value of a vial back to one dai. To acchieve this the vampires will draw or consume blood. If darkEnergy is too low, they will call a liquidation by rebasing the bloodVials\n\n\t  \tuint32 timeElapsed = updateOracle(); \n\t\tuint256 darkEnergy = getDarkEnergy();\n\t\t\n\t\tif (darkEnergy > 1500){\n\t\t\t// Vampires firmly in power, only defend the value of blood \n\t\t\tfillBloodVials(darkEnergy,timeElapsed);\n\t\t\t\n\t\t} else if (darkEnergy > 800){\n\t\t\t// recrout new Vampires to increase darkEnergy. Also defend price of Blood\n\t\t\trecruitVampires(darkEnergy,timeElapsed);\n\t\t\tfillBloodVials(darkEnergy,timeElapsed);\n\t\t\t\n\t\t\t\n\t\t} else {\n\t\t\t// here the vampires have lost controll. A liquidation is needed. We rebase bloodVials until we have enough darkPower to back their price. \n\t\t\tuint256 one = 10**18;\n\t\t\tuint256 price = uint256(priceBloodAverage.mul(one).decode144()); // price of one vial in weth\n\t\t\tuint256 daiPrice = uint256(priceWethAverage.mul(price).decode144()); // price of one vial in dai\n\t\t\t\n\t\t\tif (daiPrice > one){\n\t\t\t\t// as long as the market price is above one dai we do not rebase. Instead people can just sell and be happy.\n\t\t\t\trecruitVampires(darkEnergy,timeElapsed);\n\t\t\t\t\n\t\t\t}\n\t\t\telse {\n\t\t\t// rebase bloodVials\n\t\t\t\trebase(); \n\t\t\t\t\n\t\t\t\t// do not use price oracles here as they are outdated after the rebase. This may also affect other fucntions that use  priceBloodAverage. Currently this is never used outside of the bloodRitual so there is no concern. But if in the future there would be callable fucntions relying on it we would need to update it here\n\t\t\t}\t\n\t\t}\n\t\t\n\t\t// reward the caller, a bit less than 1% of vampires per year \n\t\tuint256 reward = totalSupply().mul(timeElapsed).div(1000000).div(1 hours);\n\t\t_mint(msg.sender,reward);  \n\t\t\n\t\treturn true;\n    } \n\t \n\t \n    function rebase() internal returns (bool) {\n\t\t\n\t\tuint256 ethReserves = address(this).balance;\n\t\tuint256 treasury = uint256(priceWethAverage.mul(ethReserves).decode144()); \n\t\t\n\t\tuint256 liabilities = bloodVial.totalSupply();  \n\t\t\n\t\tuint256 bloodDropIncrease = liabilities.mul(1000).div(treasury);\n\t\t// this balances the bloodVials to current backing eth\n\t\t// never do more than a 3x in one step\n\t\tif (bloodDropIncrease > 3000) {\n\t\t\tbloodDropIncrease = 3000;\n\t\t}\n\t\tbloodVial.rebase(bloodDropIncrease);\n\t\tpairBloodWeth.sync(); // need to update uniswap pool after a rebase\n\t\t\n\t\treturn true;\n    } \n\t\n    function recruitVampires( uint darkEnergy,uint32 timeElapsed) internal returns (bool) {\n    \t// this function recruits new vampires and sells them to get more eth to bloster darkEnergy\n\t\t\n\t\t// darkEnergy < 1000: recruit 10% per epoch\n\t\t// darkEnergy < 1200: recruit 1% per epoch\n\t\t// darkEnergy > 1200: recruit 0.1% per epoch\n\t\t\t\n\t\tuint recruitFactor = 1;\n\t\tif (darkEnergy < 1000) recruitFactor = 100;\n\t\telse if (darkEnergy < 1200) recruitFactor = 10;\n\t\t\n\t\tuint256 targetRecruitment = recruitFactor.mul(timeElapsed).mul(totalSupply()).div(1000).div(EPOCH); \n\t\t\n\n        uint112 reserve0;\n        uint112 reserve1;\n\t\tuint32 dummyTime;\n        (reserve0, reserve1, dummyTime) = pairVampireWeth.getReserves();\n\t\tuint256 reserveVampire = (tokenVampire < tokenWeth? reserve0 : reserve1); \n\t\t\n\t\tuint256 maxRecruitment = reserveVampire.mul(3).div(1000); // this is so we do not get too much slippage and can be frontrun \n\t\tuint256 recruitment = (targetRecruitment < maxRecruitment? targetRecruitment: maxRecruitment);\n\t\t\n\t\t_mint(address(this),recruitment);  \n\t\t\n\t\t// dump the new recruits on the market and get darkEnergy\n\t\taddress[] memory path = new address[](2);\n\t\tpath[0] = tokenVampire;\n\t\tpath[1] = routerV2.WETH();\n\t\trouterV2.swapExactTokensForETH(recruitment, 0, path, address(this), block.timestamp);\n\t\t\n\t\treturn true;\n    } \n\t\n\t\n    function fillBloodVials(uint darkEnergy,uint32 timeElapsed) internal returns (bool) {\n    \t// here we draw or consume blood to keep the value stable\n\t\t\n\t\tuint256 one = 10**18;\n\t\tuint256 price = uint256(priceBloodAverage.mul(one).decode144()); // price of one vial in weth\n\t\tuint256 daiPrice = uint256(priceWethAverage.mul(price).decode144()); // price of one vial in dai\n\t\t\n\t\tuint256 reserveWeth;\n\t\tuint256 reserveBlood;\n\t\t\n        { // local scope\n\t\tuint112 reserve0;\n        uint112 reserve1;\n\t\tuint32 dummyTime;\n        (reserve0, reserve1, dummyTime) = pairBloodWeth.getReserves();\n\t\t\n\t\treserveWeth = (tokenBlood < tokenWeth? reserve1 : reserve0);\n\t\treserveBlood = (tokenBlood < tokenWeth? reserve0 : reserve1);\n\t\t}\n\t\t\n\t\tuint256 bloodVialSupply = bloodVial.totalSupply();\n\t\t\n\t\tif (daiPrice > one) {\n\t\t\t// draw and sell\n\t\t\tuint256 delta = daiPrice.sub(one).mul(10000).div(one); \n\t\t\t// delta is fractional price difference, the higher the more we want to draw\n\t\t\t\n\t\t\tuint256 baseRate = 500; // print an extra 5%\n\t\t\tif (darkEnergy < 1000) baseRate = 0; // no extra print if we are not collateralised\n\t\t\telse if (darkEnergy < 1200) baseRate = 100; // print extra 1%\n\t\t\tuint256 epochIssuance = delta.add(baseRate).mul(bloodVialSupply).div(10000); \n\t\t\tuint256 targetIssuance = epochIssuance.mul(timeElapsed).div(EPOCH);\n\t\t\t\t\n\t        \n\t\t\tuint256 maxIssuance = reserveBlood.mul(3).div(1000);\n\t\t\t\n\t\t\t// if live price is far away we can issue even more. We may get frontrun, but if price is good there is no problem\n\t\t\tprice = one.mul(reserveWeth).div(reserveBlood);\n\t\t\tdaiPrice = uint256(priceWethAverage.mul(price).decode144());\n\t\t\tif (daiPrice > one) {\n\t\t\t\tdelta = daiPrice.sub(one).mul(10000).div(one);\n\t\t\t\tif (delta > 330){ // more then 3.3% price differnce\n\t\t\t\t\tuint256 slip = delta.sub(300); // trade to 3%\n\t\t\t\t\tif (slip > 500){slip = 500;} // never slip more than 5%\n\t\t\t\t\tmaxIssuance = reserveBlood.mul(slip).div(10000);\n\t\t\t\t\n\t\t\t\t}\n\t\t\t}\n\t\t\t\n\t\t\tuint256 issuance = (targetIssuance < maxIssuance? targetIssuance: maxIssuance);\n\t\t\t\n\t\t\tbloodVial.mint(address(this),issuance);  \n\t\t\n\t\t\t// sell new blood to drop the price\n\t\t\taddress[] memory path = new address[](2);\n\t\t\tpath[0] = tokenBlood;\n\t\t\tpath[1] = routerV2.WETH();\n\t\t\trouterV2.swapExactTokensForETH(issuance, 0, path, address(this), block.timestamp);\n\t\t\t\t\t\t \n\t\t}\n\t\telse {\n\t\t \t// here price is low, so we want to buy back blood and consume it\n\t\t\tuint256 delta = one.sub(daiPrice).mul(10000).div(one); \n\t\t\tuint256 epochBurn = delta.mul(bloodVialSupply).div(10000);\n\t\t\tuint256 targetBurn = epochBurn.mul(timeElapsed).div(EPOCH);\n\t\t\t\n\t\t\tuint256 maxBurn = reserveBlood.mul(3).div(1000);  // limit maximum slippage\n\t\t\t\n\t\t\t\n\t\t\t// again check if live price is far too low, then buy even more\n\t\t\tprice = one.mul(reserveWeth).div(reserveBlood);\n\t\t\tdaiPrice = uint256(priceWethAverage.mul(price).decode144());\n\t\t\tif (daiPrice < one) {\n\t\t\t\tdelta = one.sub(daiPrice).mul(10000).div(one);\n\t\t\t\tif (delta > 330){ // more then 3.3% price differnce\n\t\t\t\t\tuint256 slip = delta.sub(300); // trade to 3%\n\t\t\t\t\tif (slip > 500){slip = 500;} // never slip more than 5%\n\t\t\t\t\tmaxBurn = reserveBlood.mul(slip).div(10000);\n\t\t\t\t\n\t\t\t\t}\n\t\t\t}\n\t\t\t\n\t\t\t\n\t\t\tuint256 burn = (targetBurn < maxBurn? targetBurn: maxBurn);\n\t\t\tuint256 ethBurn = uint256(priceBloodAverage.mul(burn).decode144()); \n\t\t\tuint256 maxEthBurn = address(this).balance.div(2); // never burn more than half the treasury\n\t\t\tif (ethBurn > maxEthBurn) {\n\t\t\t\tethBurn = maxEthBurn;\n\t\t\t}\n\t\t\t\n\t\t\t// buy and consume blood\n\t\t\taddress[] memory path = new address[](2);\n\t\t\tpath[0] = routerV2.WETH();\n\t\t\tpath[1] = tokenBlood;\n\t\t\trouterV2.swapExactETHForTokens{value: ethBurn}(0, path, address(this),  block.timestamp );\n\t\t\t\n\t\t\tburn = bloodVial.balanceOf(address(this));\n\t\t\t\n\t\t\tbloodVial.burn(address(this),burn);\n\t\t\t\n\t\t\t\n\t\t}\n\t\t\n\t\n\t\treturn true;\n\t\t\n    }\n\t\n\t\n\t\n\tfunction sliverBullet(uint vampires) public returns (bool) {\n\t\t// this kills of your vampires and steals their eth\n\t\t\n\t\trequire(balanceOf(msg.sender) >= vampires,'Cannot kill more vampires than you have found');\n\t\t\n\t\tdarkRitual();\n\t\t\n\t\t// this is a copy of getDarkEnergy, we call it like this since we need intermediate quantities\n\t\tuint256 ethReserves = address(this).balance;\n\t\tuint256 treasury = uint256(priceWethAverage.mul(ethReserves).decode144()); \n\t\tuint256 liabilities = bloodVial.totalSupply(); \n\t\t\n\t\tuint256 darkEnergy = treasury.mul(1000).div(liabilities);\n\t\t\n\t\trequire(darkEnergy > 2000, 'The Vampires are still hiding in their lairs');\n\t\t\n\t\tuint256 lootedDai = (treasury.sub(liabilities)).mul(vampires).div(totalSupply()); \n\t\tuint256 targetDarkEnergy = (treasury.sub(lootedDai)).mul(1000).div(liabilities); \n\t\t\n\t\trequire(targetDarkEnergy > 2000,\"Be more careful! Now the vampires are hiding\");\n\t\t\t\n\t\t// alternatice calculation: (treasury - liabilities)/treasury * ethReserves/supply*vampires (would not require dai oracle)\n\t\tuint256 lootedEth = uint256(priceDaiAverage.mul(lootedDai).decode144());\n\t\t_burn(msg.sender, vampires );\n\t\tmsg.sender.transfer(lootedEth);\n\t\t\n\t\n\t\treturn true;\n\t\t\n\t}\n\t\n\t\n\tfunction bloodGarlic(uint vampires) public returns (bool) {\n\t\t// destroy an equal share of vampires and bloodVials to get a fraction of locked eth\n\t\t\n\t\t// this curse puts a constraint that the value of vampires and bloodVials must be at least equivalent to the ethreserve. \n\t\t\n\t\trequire(balanceOf(msg.sender) >= vampires,'Cannot poison more vampires than you have found');\n\t\t\n\t\tdarkRitual(); // if you want to exit, at least update the oracles for us :)\n\t\t\n\t\tuint256 requiredBloodVials = vampires.mul(bloodVial.totalSupply()).div(totalSupply());\n\t\trequire(bloodVial.balanceOf(msg.sender) >= requiredBloodVials,'Need more blood to contaminate it with garlic');\n\t\t\n\t\tuint256 ethReserves = address(this).balance;\n\t\tuint256 requestedEth = vampires.mul(ethReserves).div(totalSupply());\n\t\t_burn(msg.sender, vampires );\n\t\tbloodVial.burn(msg.sender, requiredBloodVials);\n\t\t\n\t\tmsg.sender.transfer(requestedEth);\n\t\t\n\t\treturn true;\n\t\t\n\t}\n\t\n\tfunction etherRitual() public payable returns (bool) {\n\t\t// this spell creates both blood and vampires out of ether, leaving the darkPower invariant\n\t\t// it can only be allowed if the vampires are strong enough if close to liquidation this otherwise could lead to the paradoxical situation of more Vials being filled \n\t\t// when active it contrains the value of vampires and bloodVials from above\n\t\t\n\t\tdarkRitual(); \n\t\trequire (getDarkEnergy() > 1500,'the vampires are too weak to cast this spell');\n\t\t// msg.value\n\t\tuint256 ethReserves = address(this).balance - msg.value; // ethReserves before the spell\n\t\t\n\t\tuint256 bloodVials = (msg.value).mul(bloodVial.totalSupply()).div(ethReserves);\n\t\tuint256 vampires = (msg.value).mul(totalSupply()).div(ethReserves);\n\n\t\t_mint(msg.sender, vampires );\n\t\tbloodVial.mint(msg.sender, bloodVials);\n\t\t\n\t\treturn true;\n\t\t\n\t}\n\t\n\t// put v1 on github\n\t// invite people\n\t// code reward\n\t// 1. exxess trade reward, it may be easier to just give it to coll and collect money from there directl\n\t// 2. percent reward 1 percent a year -> 0.01/365/24 per hour = 0.00000114. At cap of one mill : 1 buck an hour!\n\t// deploy to mainnet\n\t// basegrowthh should depend on alpha \n\t\n\t\t\n\t// name: unistable ,, stable coin on top of uniswap\n\t// unilev\n\t// plans for v2: fair governance\n\t// -- gov token gained from staking liquidity\n\t// -- gov token rewards gainsed from staking gov token\n\t// -- voting contracts\n\t// -- interest rate rebases\n\t// interest rate\n\t// gov rewards\n\t// modular price oracles\n\t// rebase for gov token??\n\t\n\t// rewards for liquidity and calling the function, oracle liquidity to lure in new folks\n\t//...\n}\n",
  "sourcePath": "/Users/christian/ethprojects/rebaseCoin/contracts/Vampire.sol",
  "compiler": {
    "name": "solc",
    "version": "0.6.6+commit.6c089d02.Emscripten.clang"
  },
  "schemaVersion": "3.2.3",
  "updatedAt": "2020-09-27T21:05:22.289Z",
  "networkType": "ethereum",
  "devdoc": {
    "methods": {
      "allowance(address,address)": {
        "details": "See {IERC20-allowance}."
      },
      "approve(address,uint256)": {
        "details": "See {IERC20-approve}.     * Requirements:     * - `spender` cannot be the zero address."
      },
      "balanceOf(address)": {
        "details": "See {IERC20-balanceOf}."
      },
      "decimals()": {
        "details": "Returns the number of decimals used to get its user representation. For example, if `decimals` equals `2`, a balance of `505` tokens should be displayed to a user as `5,05` (`505 / 10 ** 2`).     * Tokens usually opt for a value of 18, imitating the relationship between Ether and Wei. This is the value {ERC20} uses, unless {_setupDecimals} is called.     * NOTE: This information is only used for _display_ purposes: it in no way affects any of the arithmetic of the contract, including {IERC20-balanceOf} and {IERC20-transfer}."
      },
      "decreaseAllowance(address,uint256)": {
        "details": "Atomically decreases the allowance granted to `spender` by the caller.     * This is an alternative to {approve} that can be used as a mitigation for problems described in {IERC20-approve}.     * Emits an {Approval} event indicating the updated allowance.     * Requirements:     * - `spender` cannot be the zero address. - `spender` must have allowance for the caller of at least `subtractedValue`."
      },
      "increaseAllowance(address,uint256)": {
        "details": "Atomically increases the allowance granted to `spender` by the caller.     * This is an alternative to {approve} that can be used as a mitigation for problems described in {IERC20-approve}.     * Emits an {Approval} event indicating the updated allowance.     * Requirements:     * - `spender` cannot be the zero address."
      },
      "name()": {
        "details": "Returns the name of the token."
      },
      "owner()": {
        "details": "Returns the address of the current owner."
      },
      "renounceOwnership()": {
        "details": "Leaves the contract without owner. It will not be possible to call `onlyOwner` functions anymore. Can only be called by the current owner.     * NOTE: Renouncing ownership will leave the contract without an owner, thereby removing any functionality that is only available to the owner."
      },
      "symbol()": {
        "details": "Returns the symbol of the token, usually a shorter version of the name."
      },
      "totalSupply()": {
        "details": "See {IERC20-totalSupply}."
      },
      "transfer(address,uint256)": {
        "details": "See {IERC20-transfer}.     * Requirements:     * - `recipient` cannot be the zero address. - the caller must have a balance of at least `amount`."
      },
      "transferFrom(address,address,uint256)": {
        "details": "See {IERC20-transferFrom}.     * Emits an {Approval} event indicating the updated allowance. This is not required by the EIP. See the note at the beginning of {ERC20};     * Requirements: - `sender` and `recipient` cannot be the zero address. - `sender` must have a balance of at least `amount`. - the caller must have allowance for ``sender``'s tokens of at least `amount`."
      },
      "transferOwnership(address)": {
        "details": "Transfers ownership of the contract to a new account (`newOwner`). Can only be called by the current owner."
      }
    }
  },
  "userdoc": {
    "methods": {}
  }
}